{
  "contractName": "VulnerableContractReentrancy",
  "abi": [
    {
      "inputs": [
        {
          "internalType": "address",
          "name": "",
          "type": "address"
        }
      ],
      "name": "balances",
      "outputs": [
        {
          "internalType": "uint256",
          "name": "",
          "type": "uint256"
        }
      ],
      "stateMutability": "view",
      "type": "function",
      "constant": true
    },
    {
      "inputs": [],
      "name": "depositFunds",
      "outputs": [],
      "stateMutability": "payable",
      "type": "function",
      "payable": true
    },
    {
      "inputs": [
        {
          "internalType": "uint256",
          "name": "_weiToWithdraw",
          "type": "uint256"
        }
      ],
      "name": "withdrawFunds",
      "outputs": [],
      "stateMutability": "nonpayable",
      "type": "function"
    }
  ],
  "bytecode": "0x608060405234801561001057600080fd5b506105a8806100206000396000f3fe6080604052600436106100345760003560e01c8063155dd5ee1461003957806327e235e314610062578063e2c41dbc1461009f575b600080fd5b34801561004557600080fd5b50610060600480360381019061005b91906102f1565b6100a9565b005b34801561006e57600080fd5b50610089600480360381019061008491906102c8565b61022f565b6040516100969190610418565b60405180910390f35b6100a7610247565b005b806000803373ffffffffffffffffffffffffffffffffffffffff1673ffffffffffffffffffffffffffffffffffffffff16815260200190815260200160002054101561012a576040517f08c379a0000000000000000000000000000000000000000000000000000000008152600401610121906103d8565b60405180910390fd5b60003373ffffffffffffffffffffffffffffffffffffffff1682604051610150906103c3565b60006040518083038185875af1925050503d806000811461018d576040519150601f19603f3d011682016040523d82523d6000602084013e610192565b606091505b50509050806101d6576040517f08c379a00000000000000000000000000000000000000000000000000000000081526004016101cd906103f8565b60405180910390fd5b816000803373ffffffffffffffffffffffffffffffffffffffff1673ffffffffffffffffffffffffffffffffffffffff168152602001908152602001600020600082825461022491906104a5565b925050819055505050565b60006020528060005260406000206000915090505481565b346000803373ffffffffffffffffffffffffffffffffffffffff1673ffffffffffffffffffffffffffffffffffffffff1681526020019081526020016000206000828254610295919061044f565b92505081905550565b6000813590506102ad81610544565b92915050565b6000813590506102c28161055b565b92915050565b6000602082840312156102da57600080fd5b60006102e88482850161029e565b91505092915050565b60006020828403121561030357600080fd5b6000610311848285016102b3565b91505092915050565b600061032760148361043e565b91507f496e73756666696369656e742062616c616e63650000000000000000000000006000830152602082019050919050565b6000610367600083610433565b9150600082019050919050565b600061038160108361043e565b91507f5472616e73666572206661696c65642e000000000000000000000000000000006000830152602082019050919050565b6103bd8161050b565b82525050565b60006103ce8261035a565b9150819050919050565b600060208201905081810360008301526103f18161031a565b9050919050565b6000602082019050818103600083015261041181610374565b9050919050565b600060208201905061042d60008301846103b4565b92915050565b600081905092915050565b600082825260208201905092915050565b600061045a8261050b565b91506104658361050b565b9250827fffffffffffffffffffffffffffffffffffffffffffffffffffffffffffffffff0382111561049a57610499610515565b5b828201905092915050565b60006104b08261050b565b91506104bb8361050b565b9250828210156104ce576104cd610515565b5b828203905092915050565b60006104e4826104eb565b9050919050565b600073ffffffffffffffffffffffffffffffffffffffff82169050919050565b6000819050919050565b7f4e487b7100000000000000000000000000000000000000000000000000000000600052601160045260246000fd5b61054d816104d9565b811461055857600080fd5b50565b6105648161050b565b811461056f57600080fd5b5056fea26469706673582212201b8f92a3d2b0515ea2b40147a5160e5b5b04c2571fc859b33ebc07a83d2fc55b64736f6c63430008000033",
  "immutableReferences": {},
  "source": "// SPDX-License-Identifier: MIT\npragma solidity ^0.8.0;\n\ncontract VulnerableContractReentrancy {\n    mapping(address => uint256) public balances;\n    \n    function depositFunds() public payable {\n        balances[msg.sender] += msg.value;\n    }\n\n    function withdrawFunds(uint256 _weiToWithdraw) public {\n    require(balances[msg.sender] >= _weiToWithdraw, \"Insufficient balance\");\n    (bool success, ) = msg.sender.call{value: _weiToWithdraw}(\"\");\n    require(success, \"Transfer failed.\");\n    balances[msg.sender] -= _weiToWithdraw;\n}\n}",
  "sourcePath": "/Users/maochuansun/maochuan/Github/mcswing/ETHSecure/contracts/VulnerableContractReentrancy.sol",
  "compiler": {
    "name": "solc",
    "version": "0.8.0+commit.c7dfd78e.Emscripten.clang"
  },
  "schemaVersion": "3.4.16",
  "updatedAt": "2024-12-02T04:59:36.808Z",
  "networkType": "ethereum",
  "devdoc": {
    "kind": "dev",
    "methods": {},
    "version": 1
  },
  "userdoc": {
    "kind": "user",
    "methods": {},
    "version": 1
  }
}