{
  "contractName": "VulnerableContractReentrancy",
  "abi": [
    {
      "inputs": [
        {
          "internalType": "address",
          "name": "",
          "type": "address"
        }
      ],
      "name": "balances",
      "outputs": [
        {
          "internalType": "uint256",
          "name": "",
          "type": "uint256"
        }
      ],
      "stateMutability": "view",
      "type": "function",
      "constant": true
    },
    {
      "inputs": [],
      "name": "depositFunds",
      "outputs": [],
      "stateMutability": "payable",
      "type": "function",
      "payable": true
    },
    {
      "inputs": [
        {
          "internalType": "uint256",
          "name": "_weiToWithdraw",
          "type": "uint256"
        }
      ],
      "name": "withdrawFunds",
      "outputs": [],
      "stateMutability": "nonpayable",
      "type": "function"
    }
  ],
  "bytecode": "0x608060405234801561001057600080fd5b50610504806100206000396000f3fe6080604052600436106100345760003560e01c8063155dd5ee1461003957806327e235e314610062578063e2c41dbc1461009f575b600080fd5b34801561004557600080fd5b50610060600480360381019061005b91906102ad565b6100a9565b005b34801561006e57600080fd5b5061008960048036038101906100849190610284565b6101eb565b6040516100969190610374565b60405180910390f35b6100a7610203565b005b806000803373ffffffffffffffffffffffffffffffffffffffff1673ffffffffffffffffffffffffffffffffffffffff16815260200190815260200160002054101561012a576040517f08c379a000000000000000000000000000000000000000000000000000000000815260040161012190610354565b60405180910390fd5b3373ffffffffffffffffffffffffffffffffffffffff168160405161014e9061033f565b60006040518083038185875af1925050503d806000811461018b576040519150601f19603f3d011682016040523d82523d6000602084013e610190565b606091505b505050806000803373ffffffffffffffffffffffffffffffffffffffff1673ffffffffffffffffffffffffffffffffffffffff16815260200190815260200160002060008282546101e19190610401565b9250508190555050565b60006020528060005260406000206000915090505481565b346000803373ffffffffffffffffffffffffffffffffffffffff1673ffffffffffffffffffffffffffffffffffffffff168152602001908152602001600020600082825461025191906103ab565b92505081905550565b600081359050610269816104a0565b92915050565b60008135905061027e816104b7565b92915050565b60006020828403121561029657600080fd5b60006102a48482850161025a565b91505092915050565b6000602082840312156102bf57600080fd5b60006102cd8482850161026f565b91505092915050565b60006102e360148361039a565b91507f496e73756666696369656e742062616c616e63650000000000000000000000006000830152602082019050919050565b600061032360008361038f565b9150600082019050919050565b61033981610467565b82525050565b600061034a82610316565b9150819050919050565b6000602082019050818103600083015261036d816102d6565b9050919050565b60006020820190506103896000830184610330565b92915050565b600081905092915050565b600082825260208201905092915050565b60006103b682610467565b91506103c183610467565b9250827fffffffffffffffffffffffffffffffffffffffffffffffffffffffffffffffff038211156103f6576103f5610471565b5b828201905092915050565b600061040c82610467565b915061041783610467565b92508282101561042a57610429610471565b5b828203905092915050565b600061044082610447565b9050919050565b600073ffffffffffffffffffffffffffffffffffffffff82169050919050565b6000819050919050565b7f4e487b7100000000000000000000000000000000000000000000000000000000600052601160045260246000fd5b6104a981610435565b81146104b457600080fd5b50565b6104c081610467565b81146104cb57600080fd5b5056fea2646970667358221220a67d4578d8e27b5fdb0954caf1c4dadf115dbcfc0fd135b9d71f14c68f21c27f64736f6c63430008000033",
  "immutableReferences": {},
  "source": "// SPDX-License-Identifier: MIT\npragma solidity ^0.8.0;\n\ncontract VulnerableContractReentrancy {\n    mapping(address => uint256) public balances;\n    \n    function depositFunds() public payable {\n        balances[msg.sender] += msg.value;\n    }\n\n    function withdrawFunds(uint256 _weiToWithdraw) public {\n    require(balances[msg.sender] >= _weiToWithdraw, \"Insufficient balance\");\n    msg.sender.call{value: _weiToWithdraw}(\"\");\n    balances[msg.sender] -= _weiToWithdraw;\n}\n}",
  "sourcePath": "/Users/maochuansun/maochuan/Github/mcswing/ETHSecure/contracts/VulnerableContractReentrancy.sol",
  "compiler": {
    "name": "solc",
    "version": "0.8.0+commit.c7dfd78e.Emscripten.clang"
  },
  "schemaVersion": "3.4.16",
  "updatedAt": "2024-12-02T18:40:51.152Z",
  "networkType": "ethereum",
  "devdoc": {
    "kind": "dev",
    "methods": {},
    "version": 1
  },
  "userdoc": {
    "kind": "user",
    "methods": {},
    "version": 1
  }
}